:100000000C94120A0C944A0A0C944A0A0C944A0A58
:100010000C944A0A0C944A0A0C944A0A0C944A0A10
:100020000C944A0A0C944A0A0C94172C0C94DB2B5F
:100030000C944F2D0C944A0A0C944A0A0C944A0AC8
:100040000C944A0A0C944A0A0C944A0A0C944A0AE0
:100050000C944A0A0C94292D0C944A0A0C944A0ACE
:100060000C944A0A0C944A0A0C944A0A0C944A0AC0
:100070000C944A0A0C944A0A0C944A0A0C944A0AB0
:100080000C944A0A0C944A0A0C944A0A0C944A0AA0
:100090000C944A0A0C944A0A0C944A0A0C944A0A90
:1000A0000C944A0A0C944A0A0C944A0A507E517ED7
:1000B00000001700110000000400080000005A7E34
:1000C0005B7E00000F000900000006000F0000002A
:1000D0000000000000000100610000000000740A40
:1000E0000000000000000200690000000000740A27
:1000F0000000000000000400750000000000740A09
:100100000000004000010000650000000000740ACB
:1001100000000040000000026F0000000000740AB0
:1001200000000000002000006B6100000000740A65
:1001300000000000020000006B6900000000740A6B
:1001400000000000008000006B7500000000740AD1
:1001500000000000000800006B6500000000740A49
:1001600000000000000080006B6F00000000740AB7
:100170000000004040000000736100000000740AAD
:100180000000000008000000736900000000740A0D
:100190000000000000010000737500000000740AF8
:1001A0000000004000040000736500000000740AB5
:1001B0000000000000000001736F00000000740ADE
:1001C0000000000000000002746100000000740ADA
:1001D0000000004000400000746900000000740A44
:1001E0000000004000000400747500000000740A64
:1001F0000000000004000000746500000000740AA4
:100200000000000000100000746F00000000740A7D
:1002100000000000000000046E6100000000740A8D
:1002200000000040001000006E6900000000740A29
:1002300000000040000000016E7500000000740A1C
:1002400000000040080000006E6500000000740A15
:1002500000000040000001006E6F00000000740A02
:100260000000000000004000686100000000740A07
:100270000000000000002000686900000000740A0F
:100280000000004000002000686900000000740ABF
:100290000000004000000800687500000000740ABB
:1002A0000000000000020000686500000000740A01
:1002B0000000000000001000686F00000000740AD9
:1002C0000000004000001000686F00000000740A89
:1002D00000000040002000006D6100000000740A72
:1002E00000000040000800006D6900000000740A72
:1002F00000000040000000086D7500000000740A56
:1003000000000040020000006D6500000000740A5B
:1003100000000040000002006D6F00000000740A41
:100320000000004000800000796100000000740AB5
:100330000000004000020000797500000000740A0F
:100340000000004080000000796F00000000740A87
:100350000000000000000010726100000000740A3C
:100360000000004004000000726900000000740AF0
:100370000000000080000000727500000000740A98
:100380000000000000000020726500000000740AF8
:100390000000004000000020726500000000740AA8
:1003A0000000000000040000726F00000000740AEA
:1003B0000000004000000010776100000000740A97
:1003C0000000004000004000776F00000000740A49
:1003D00000000000000000086E6E00000000740ABB
:1003E00000000000000008002D0000000000740A5A
:1003F0000000000000200100676100000000740A96
:100400000000000002000100676900000000740A9B
:100410000000000000A00000677500000000740AE2
:100420000000000000080100676500000000740A79
:100430000000000000008100676F00000000740AE7
:1004400000000000402000007A6100000000740AF3
:1004500000000000080001007A6900000000740A32
:1004600000000000002100007A7500000000740AFE
:1004700000000000000401007A6500000000740A1A
:1004800000000000000001017A6F00000000740A03
:100490000000000000200002646100000000740AF7
:1004A0000000000000400100646900000000740AC0
:1004B0000000000000200400647500000000740AC1
:1004C0000000000004000100646500000000740AE0
:1004D0000000000000100100646F00000000740ABA
:1004E0000000000000004100626100000000740A8A
:1004F0000000000000002100626900000000740A92
:100500000000000000200800627500000000740A6E
:100510000000000000220000626500000000740A74
:100520000000000000001100626F00000000740A6B
:100530000000000000200C00767500000000740A26
:100540000000000000004004706100000000740A18
:100550000000000000002004706900000000740A20
:100560000000000000008800707500000000740AA0
:100570000000000000028000706500000000740AA6
:100580000000000000001004706F00000000740AFA
:100590000000000001800000787961000000740A0A
:1005A0000000000001020000787975000000740A64
:1005B000000000008100000078796F000000740ADC
:1005C0000000000001000100786100000000740AD2
:1005D0000000000001000200786900000000740AB9
:1005E0000000000001000400787500000000740A9B
:1005F0000000000001010000786500000000740A9E
:100600000000000001000002786F00000000740A82
:100610000000000001000010787761000000740AFB
:100620000000000000400000787475000000740AAB
:100630000000000001080000786B65000000740AEB
:100640000000000001200000786B61000000740AC7
:100650000000000008800000737961000000740A47
:100660000000000008020000737975000000740AA1
:10067000000000008800000073796F000000740A19
:1006800000000000088001007A7961000000740A0F
:1006900000000000080201007A7975000000740A69
:1006A00000000000880001007A796F000000740AE1
:1006B00000000000028000006B7961000000740AF5
:1006C00000000000020200006B7975000000740A4F
:1006D00000000000820000006B796F000000740AC7
:1006E0000000000002800100677961000000740AC8
:1006F0000000000002020100677975000000740A22
:10070000000000008200010067796F000000740A99
:100710000000000000C00000747961000000740A4D
:100720000000000000420000747975000000740AA7
:10073000000000008040000074796F000000740A1F
:100740000000000000C00100647961000000740A2C
:100750000000000000420100647975000000740A86
:10076000000000008040010064796F000000740AFE
:1007700000000000009000006E7961000000740A23
:1007800000000000001200006E7975000000740A7D
:1007900000000000801000006E796F000000740AF5
:1007A0000000000000802000687961000000740AE9
:1007B0000000000000022000687975000000740A43
:1007C000000000008000200068796F000000740ABB
:1007D0000000000000802100627961000000740ABE
:1007E0000000000000022100627975000000740A18
:1007F000000000008000210062796F000000740A90
:100800000000000000802004707961000000740A7C
:100810000000000000022004707975000000740AD6
:10082000000000008000200470796F000000740A4E
:1008300000000000008800006D7961000000740A6B
:1008400000000000000A00006D7975000000740AC5
:1008500000000000800800006D796F000000740A3D
:100860000000000004800000727961000000740A3A
:100870000000000004020000727975000000740A94
:10088000000000008400000072796F000000740A0C
:100890000000000004000204746869000000740A8B
:1008A0000000000004020004746578797500740A81
:1008B0000000000004000300646869000000740A7E
:1008C0000000000004020100646875000000740A62
:1008D0000000000000100404746F78750000740AB2
:1008E0000000000000100500646F78750000740AB5
:1008F0000000000008010004737965000000740A1C
:100900000000000000410004747965000000740AD2
:1009100000000000080101007A7965000000740AF7
:100920000000000000410100647965000000740AC5
:100930000000000000008900666100000000740AE9
:100940000000000000008A00666900000000740AD0
:100950000000000000018800666500000000740AC5
:100960000000000000008802666F00000000740AAA
:100970000000000000028800667975000000740A1B
:100980000000000000018200697865000000740A20
:100990000000000000008600776900000000740A73
:1009A0000000000000018400776500000000740A68
:1009B000000000000000840275786F000000740AD7
:1009C0000000000000200500766100000000740AAD
:1009D0000000000000200600766900000000740A94
:1009E0000000000000210400766500000000740A89
:1009F0000000000000200402766F00000000740A6E
:100A00000000000000220400767578797500740AF1
:100A100000000000008081006B7578610000740A9E
:100A200000000000008082006B7578690000740A85
:100A300000000000008180006B7578650000740A7A
:100A400000000000008080026B75786F0000740A5F
:100A500000000000008080106B7578776100740AD8
:100A60000000000000A00100677578610000740AB2
:100A70000000000000A00200677578690000740A99
:100A80000000000000A10000677578650000740A8E
:100A90000000000000A000026775786F0000740A73
:100AA0000000000000A00010677578776100740AEC
:100AB0000000000000008500747361000000740AEB
:100AC0000000000000000040200000000000740A48
:100AD0000000000001000000000000000000740A97
:100AE00000000040000080002C0101280000740A72
:100AF00000000040000000042E0101280000740ADC
:100B0000000000004000000001012A000000740AFB
:100B10000000000000008004010128000000740AA9
:100B20000000000010000000000000000000661837
:100B30000000000020000000000000000000561827
:100B40000000004010000000000000000000581CE1
:100B50000000004020000000000000000000501CC9
:100B600000000000008001000000000000009C1850
:100B7000000000000060000000000000000090186D
:100B80000000030001000000000000000000D11B75
:100B90000000030002000000000000000000D82B4D
:100BA0000000030008000000000000000000C21B5D
:100BB00000000300100000000000000000008E187C
:100BC0000000030000040000000000000000D52B1E
:100BD0000000030000080000000000000000D22B0D
:100BE0000000030000100000000000000000CF2BF8
:100BF0000000030000200000000000000000CC2BDB
:100C00000000030000400000000000000000C92BAD
:100C10000000030000001000000000000000C62BD0
:100C20000000030000002000000000000000C32BB3
:100C30000000030000004000000000000000C02B86
:100C40000000030000008000000000000000BD2B39
:100C50000000030000000001000000000000BA2BAB
:100C600000300000200000000000000000001A1BFF
:100C70000030000040000000000000000000491C9F
:100C80000030000080000000000000000000461856
:100C900000300000000100000000000000008C187F
:100CA0000030000000020000000000000000411CB5
:100CB0000030000000800000000000000000091B60
:100CC0000030000000000100000000000000841857
:100CD00000300000000002000000000000003B1C8B
:100CE0000030000000000400000000000000351C7F
:100CF0000030000000000800000000000000B31BEE
:100D00000030000000000002000000000000071B8F
:100D10000030000000000004000000000000761811
:100D200000300000000000080000000000002F1C40
:100D30000030000000000010000000000000291C2E
:100D40000030000000000020000000000000A41B94
:100D50000000000C01000000000000000000B72BA4
:100D60000000000C02000000000000000000B12B99
:100D70000000000C04000000000000000000601BE8
:100D80000000000C080000000000000000005A1BDA
:100D90000000000C10000000000000000000AE2B5E
:100DA0000000000C00040000000000000000AB2B5D
:100DB0000000000C00080000000000000000A82B4C
:100DC0000000000C001000000000000000004E1B9E
:100DD0000000000C00200000000000000000441B88
:100DE0000000000C00400000000000000000861819
:100DF0000000000C00001000000000000000A52B07
:100E00000000000C00002000000000000000A22BE9
:100E10000000000C000040000000000000009C2BBF
:100E20000000000C00008000000000000000932B78
:100E30000000000C000000010000000000008A2BF0
:100E40000000C00020000000000000000000241C82
:100E50000000C00040000000000000000000951BE2
:100E60000000C000800000000000000000004818E2
:100E70000000C00000010000000000000000F71B9F
:100E80000000C00000020000000000000000861BFF
:100E90000000C00000800000000000000000771B80
:100EA0000000C00000000100000000000000681801
:100EB0000000C00000000200000000000000581800
:100EC0000000C00000000400000000000000F11B52
:100ED0000000C00000000800000000000000EB1B44
:100EE0000000C00000000002000000000000E61B3F
:100EF0000000C000000000040000000000005E1CB4
:100F00000000C00000000008000000000000561CA7
:100F10000000C00000000010000000000000E01B06
:100F20000000C00000000020000000000000681B5E
:100F3000EFBC8F00E280A6E280A600E3808E00EF87
:100F4000BC9F00E3808C00EFBC8800E28095E280CB
:100F50009500E3808F00EFBC8100E3808D00EFBC43
:100F60008900EFBD9C00E38080E38080E38080C344
:100F700097E38080E38080E38080C397E38080E311
:100F80008080E38080C39700E3808700E3808A004D
:100F9000E3809000E3808B00E3809100E3808D008C
:100FA000E3808C00E3808D00E3808D003B710A00BC
:100FB0005A5A0A003B770A001400130018001C005C
:100FC0003600000000000D0007000B000A001A00A8
:100FD0000C001200080004003700000000000E00A2
:100FE00017001100160015001D001B00797E060079
:100FF0007A7E0000000010000F00090005001900B3
:10100000E300E2006D7E6B7E2C002C00280028009F
:101010006C7E2A00E5002B08407E417E427E437EA6
:10102000447E01000100457E467E477E487E497E23
:101030004A7E4B7E4C7E4D7E4E7E010001004F7EEF
:10104000507E517E527E537E547E557E567E577E14
:10105000587E01000100597E5A7E5B7E5C7E5D7E7B
:1010600001000100010001005E7E010001005F7EC1
:1010700001000100010001000100747E717E737E99
:101080000100010001003F00400041004200430018
:101090001E001F002000210022000100010023008B
:1010A000240025002600270001000100787E767EBE
:1010B000777E010001000D01190250024F0201006C
:1010C0000100010001000100010001000100757E26
:1010D00001004C00010001000100010001000100BD
:1010E00001000100010001002B00E60001000100E9
:1010F0000100010001000100010001000100CF001A
:10110000CE00CD00D000010001000100010001006F
:1011100001000100010001007F7E807E01000100CE
:101120000100010001000100010001000100D200E6
:10113000D1000100010001001E022F002002210247
:101140002202010001002E0023023402E6002B08D7
:101150007B7E7C7E7E7E38007D7E0100010050001B
:10116000510052004F0001000100010087022502DA
:1011700030000100010032002602707E6F7E010007
:1011800001000100010001002B000100010001002D
:1011900001000100010001003A003B003C003D005D
:1011A0003E00010001003F004000410042004300BA
:1011B00001000100D200D100010001000100CF00B8
:1011C000CE00CD00D0000100440045006800690059
:1011D0000F080100010001007F7E807E01000100F8
:1011E00001000100010001000100010001000100F7
:1011F000010001000100010005010902A1018502B1
:101200000901A10005091901290815002501950802
:10121000750181020501093009311581257F95028B
:101220007508810609381581257F950175088106A5
:10123000050C0A38021581257F950175088106C0C5
:10124000C005010980A101850319012AB700150114
:1012500026B700950175108100C0050C0901A10198
:10126000850419012AA002150126A0029501751016
:101270008100C005010906A1018506050719E029BD
:10128000E715002501950875018102050719002958
:10129000EF1500250195F075018102050819012956
:1012A00005950575019102950175039101C0050130
:1012B0000906A101050719E029E715002501950890
:1012C000750181029501750881010507190029FF43
:1012D000150026FF009506750881000508190129EB
:1012E000051500250195057501910295017503917C
:1012F00001C009023B00020100A0FA09040000013C
:1013000003010100092111010001224400070581A8
:101310000308000109040100010300000009211174
:1013200001000122B600070582032000011201001E
:10133000020000000873427900000101020001145C
:101340000354006500630068006E0069006B002DA7
:10135000004F000000180342006F0061007200643B
:101360000073006F007500720063006500000004E8
:10137000030904000000000000000000000000005D
:10138000000000000000000000000000000000005D
:10139000000000000000007E0F00D4FFFFFFC70028
:1013A00000007800000000000000002A2B28000048
:1013B0000000000000000000000000000000290004
:1013C0000000002C1E3420212224342627252E360E
:1013D0002D3738271E1F202122232425263333367C
:1013E0002E37381F0405060708090A0B0C0D0E0FCF
:1013F000101112131415161718191A1B1C1D2F3152
:1014000030232D350405060708090A0B0C0D0E0FB5
:10141000101112131415161718191A1B1C1D2F3131
:1014200030354C0011241FBECFEFDAE0DEBFCDBF58
:1014300004B603FE18C08091250490912604A09163
:101440002704B09128048730904BA740B04B59F443
:10145000109225041092260410922704109228045A
:10146000E0E0F8E3099512E0A0E0B1E0E6E5F4E69B
:1014700002C005900D92AC34B107D9F724E0ACE47A
:10148000B2E001C01D92A532B207E1F70E94782DAB
:101490000C9429320C9400004091230450912404B0
:1014A00014161506FCF46CE0689F9001699F300DDE
:1014B000112429513C4F415051098417950734F0AC
:1014C000509324044093230481E0089501966CE036
:1014D000F9013C96D90101900D926A95E1F7245FDC
:1014E0003F4FEBCF80E008950895E8EDF0E0808174
:1014F0008E7F80831092E2001092DA001092E10059
:10150000A0EEB0E08C9181608C9380818F77808396
:1015100019BCA7EDB0E08C918E7F8C9380818F7E7B
:1015200080831092C50308952091E4003091E50076
:1015300085E69091EC0090FF06C09091E80090FF46
:1015400006C080E008959091E80092FDFACF909156
:10155000DB03992391F0953091F09091EB0095FD8C
:1015600010C04091E4005091E5002417350709F3BD
:1015700081509A01F1F684E0089582E0089583E0B5
:10158000089581E008958091DD0387FF13C0809165
:10159000E80082FF06C08091E8008B778093E80026
:1015A00004C08091DB038111F2CF08958091DB03A9
:1015B0008823D9F38091E80080FFF8CF8091E8007C
:1015C0008E77ECCF982F9093E900242F762F50E060
:1015D000891731F07091EC002091ED005091F000EE
:1015E00021FD07C09F5F973071F78093E90081E08C
:1015F00008953091EB003E7F3093EB003091ED0089
:101600003D7F3093ED003091EB0031603093EB0083
:101610007093EC002093ED005093F0002091EE00C9
:1016200027FDE0CF80E00895B0E0A0E0EAE1FBE034
:101630000C94DB31C8EDD0E088818F7E8883E7EDA4
:10164000F0E080818160808384E082BF81E08093CC
:10165000C50388818E7F888302EE10E0F801108236
:101660001092DA0081EEC82ED12CF601108288810A
:101670008F77888388818068888388818F7D88833D
:1016800019BC1092DB031092DC031092D00310926D
:10169000CF0390EEE92EF12CF70180818B7F8083C0
:1016A00088818160888342E060E080E08BDFF60122
:1016B00080818E7F8083F80180818160808380813A
:1016C00088608083F70180818E7F8083888180613C
:1016D0008883CDB7DEB7E8E00C94F731FC01809148
:1016E000E3039091E40386179707A0F06115710555
:1016F00029F49091E8009E779093E80090E06115BE
:10170000710551F4911108C08091E80082FF35C045
:1017100080E00895BC01F2CF8091DB038823C9F1FA
:101720008530C9F18091E80083FD31C08091E800E7
:1017300082FDEACF8091E80080FFE1CF2091F300A5
:101740008091F200322F282F6115710519F0283091
:10175000310558F091E02830310509F090E02091F2
:10176000E8002E772093E800CACF81918093F100A2
:10177000615071092F5F3F4FE7CF8091DB038823D2
:1017800041F0853041F08091E80083FFBDCF81E0DA
:10179000089582E0089583E008952FB7F89480912A
:1017A000C1039091C203A091C303B091C4032FBFA2
:1017B000089580913D0108953091BF032091BB03AE
:1017C000321720F42091BB032093BF036093B8032A
:1017D0007093B9038093BA039093BB03DEDF9093B9
:1017E000D3038093D20381E08093D1030895909135
:1017F0003E019130D1F49091B60397FF16C0E82FC7
:10180000E695E695E695EE31E0F4F0E0EA5AFD4F14
:10181000282F277081E090E001C0880F2A95EAF711
:1018200080959281892382830895EEE4F2E024E595
:1018300032E09281891301C0128231962E173F0740
:10184000C1F70895A3E0B0E0E8E2FCE00C94E131D8
:101850002091B4033091B50328173907B1F0909364
:10186000B5038093B403E091B203F091B3033097D2
:1018700061F00084F185E02D309739F024E0298370
:101880009B838A83CE01019609952396E2E00C940E
:10189000FD31A3E0B0E0EFE4FCE00C94E1312091F5
:1018A000B0033091B10328173907B1F09093B10319
:1018B0008093B003E091B203F091B303309761F0ED
:1018C0000084F185E02D309739F023E029839B8354
:1018D0008A83CE01019609952396E2E00C94FD31AE
:1018E000E091B203F091B303309739F00190F081A9
:1018F000E02D309711F00995089580E00895DC01FE
:10190000ED91FC91119784913196ED93FC9308959C
:10191000DC01ED91FC9111978191ED93FC93089579
:101920003CDF2091AC03211104C02091AD032223A0
:1019300021F09093A9038093A8032091AE03211175
:1019400004C02091AF03222321F09093A70380933A
:10195000A603E091B203F091B303309759F00680EB
:10196000F781E02D309731F082E08093AA038AEA74
:1019700093E00995089581E008958091A50380FD85
:1019800014C081FD14C082FD16C08091A30388237A
:1019900081F0823380F420E4829FC001112462E34D
:1019A00070E00E949631862F089580E1089580E2CC
:1019B000089588E0089580E40895282F35EB2303E7
:1019C000C001112497FF04C080589109892F089500
:1019D00080589F4FFBCFAC0180919F036091A00383
:1019E000982F691301C00895292F30E0F901EE0FF7
:1019F000FF1FE956FC4F0190F081E02DE417F50739
:101A0000C1F4F0E0E0E04630510540F467E0649F47
:101A1000F001659FF00D1124EF5EFE4F41E044831D
:101A20009813E1CF2F5F3F4F2370332720939F03FD
:101A300008952F5F3F4F922F9370D3CF10923203B0
:101A400010923103E1E1F1E08BE391E02581211176
:101A500002C01482168237968E179F07B9F7089531
:101A600080E00895F894E82FE295EF70F0E031A15E
:101A7000282F2F7081E090E001C0880F2A95EAF7A7
:101A8000982F9095932391A392A1892B82A3789468
:101A900008957430B8F46C30A8F48630B0F4E62FB2
:101AA000F0E09CE0799FE00DF11D112490E3899F07
:101AB000E00DF11D1124EE0FFF1FE854F04F85914A
:101AC0009491089580E090E0089581E0FCCF811525
:101AD00020E5920770F5811540E2940708F09FC059
:101AE000833C910588F4883A910508F08DC0853AC9
:101AF000910508F080C08430910528F4813091056B
:101B000011F090E080E00895883E910540F4803E19
:101B10009105C8F78D3C9105A0F390650895811556
:101B200051E0950770F320E0392FA901482BCA0135
:101B30000895803622E5920718F5803442E594072F
:101B400008F076C0803252E5950708F06AC081152A
:101B500022E5920708F486C0282F2695269550E2A4
:101B6000259F90011124482F437081E090E002C02E
:101B7000880F991F4A95E2F7822B932B9D68089551
:101B8000803C42E59407E0F4803A52E5950708F07E
:101B900064C0803822E5920708F0B3CF982F937085
:101BA00021E030E002C0220F331F9A95E2F73A6835
:101BB00086958695877050E2859FC00111244AC0A2
:101BC000803E42E5940708F09CCF9C0153E0220F31
:101BD000331F5A95E1F7207E3327AC014370552718
:101BE00081E090E002C0880F991F4A95E2F7822BAE
:101BF000932B9A680895855AE82FF0E0EE5FFD4F29
:101C0000808190E090640895885AE82FF0E0EE0F0C
:101C1000FF1FEB5FFD4F80819181946408959927A8
:101C200008958F7190E0982F8827816F906A0895AA
:101C3000282F26952695277040E2249F9001112495
:101C4000482F437081E090E002C0880F991F4A95A9
:101C5000E2F79C68822B932B08958F7190E0982F68
:101C6000882708959C0195E0369527959A95E1F788
:101C70002F7030E0322F2227482F4F7150E084FF21
:101C800006C084E0440F551F8A95E1F75527C90126
:101C90009069842B952B0895982F90958091C60379
:101CA00089238093C6030895B0E0A0E0EAE5FEE052
:101CB0000C94DA317C010091E5031091E6038091E8
:101CC000E5029091E602082B192BCFE0D0E0CC245E
:101CD000C394D12CBC2EC6010C2E02C0880F991FB4
:101CE0000A94E2F780239123892B49F4219790F7F6
:101CF000B12C8B2DCDB7DEB7E9E00C94F631B701EE
:101D00008C2FC7DEE4DE019789F3F3CF943078F5AA
:101D10008C3068F5E82FF0E08CE0989FE00DF11D25
:101D200011249E2F977083E0F695E7958A95E1F749
:101D3000EE0FFF1FEE0FFF1FE557FD4F50E040E095
:101D400080E0219130E0092E02C0369527950A9453
:101D5000E2F721703327042E01C0220F0A94EAF71C
:101D6000822B4F5F5F4F4430510559F7089580E053
:101D70000895943098F58C3088F5E82FF0E08CE0E9
:101D8000989FE00DF11D11248E2F877041E001C056
:101D9000440F8A95EAF783E0F695E7958A95E1F78F
:101DA000EE0FFF1FEE0FFF1FE557FD4F30E020E065
:101DB00070E05191DF011197CB01022E02C0969580
:101DC00087950A94E2F7817081958527842385277A
:101DD0008C932F5F3F4F2430310559F708959C01B4
:101DE000247133272431310531F480629093E60366
:101DF0008093E50308958F7DF9CF8091E50390915D
:101E0000E6039C01247133272431310511F48062EB
:101E1000E6CF8F7DFDCF21E030E002C0220F331FDF
:101E20008A95E2F7209530958091E5039091E6033D
:101E300082239323D4CF21E030E002C0220F331F4E
:101E40008A95E2F78091E5039091E603822B932B2C
:101E5000C6CF9093E6028093E5020895662309F4C5
:101E600053C08D3C29F489DD81958093AD0358CD15
:101E70008E3C11F482DDF9CF8F3C29F47EDD819513
:101E80008093AC03F4CF803D11F477DDF9CF893D29
:101E900021F471DD8093AE03EACF8A3D19F46BDD46
:101EA0008195F8CF8B3D29F466DD81958093AF0352
:101EB000DECF8C3D11F45FDDF9CF9FE2980F9830B3
:101EC00070F4815D990B21E030E001C0220F8A950A
:101ED000EAF78091AB03822B8093AB03C8CF8D3D93
:101EE00031F48091A50381608093A503C0CF8E3D1E
:101EF00021F48091A5038260F7CF8F3D09F0B7CF21
:101F00008091A5038460F0CF8D3CD9F49091AD030E
:101F100097FF1DC01092AD038091AC03811106C0E4
:101F20008091AD03811102C01092A3038091AE0392
:101F300081119DCF8091AF03811199CF1092A4039D
:101F400096CF8E3CD9F49091AD0319161CF39FE205
:101F5000980F983008F03FC0815D990B21E030E088
:101F6000A90102C0440F551F8A95E2F7CA01809566
:101F70009091AB0389238093AB03CECF9091AC03B8
:101F80008F3C29F497FFE3CF1092AC03C5CF803D7F
:101F900019F41916CCF3DBCF9091AE03893D29F4E7
:101FA0001916ACF61092AE03B7CF8A3D19F497FF1D
:101FB000CECFF8CF8B3D39F49091AF0397FFC7CFC9
:101FC0001092AF03A9CF8C3D09F0C1CF9091AF0320
:101FD0001916B4F3BCCF8D3D31F48091A5038E7FEB
:101FE0008093A50399CF8E3D21F48091A5038D7F29
:101FF000F7CF8F3D09F090CF8091A5038B7FF0CF75
:10200000A6E0B0E0E6E0F0E10C94E031FC0186816E
:1020100097810097D1F4CF0126E0DE01119601905F
:102020000D922A95E1F7FC01258189819A8122236D
:1020300081F0662371F038DE182F682F89819A812C
:1020400098DE69817A81812F24DD2696E3E00C9465
:10205000FC315CDE182FF5CF9C013A9521153F41EC
:1020600050F5FC01EE27F170BC0166277270AC01DF
:10207000442754709C012227387094FF0EC080E0E2
:10208000EF2B09F080E1672B09F08062452B09F006
:102090008064232B89F08068089581E0EF2B09F498
:1020A00080E0672B09F08260452B09F08460232BC8
:1020B00019F08860089580E00895FC018285938579
:1020C000853091056CF49C012F5F3F4F3387228749
:1020D000880F991FE80FF91F7183608381E00895CD
:1020E00080E00895109224041092230410927A0242
:1020F0001092790210927802109277021092760272
:1021000010927B0210927C0210927D0210927E024D
:1021100010927F0208950F931F93CF93DF938B014B
:10212000EA019091DB03943059F58093E9008FEF39
:102130009091E800815095FD06C095ED9A95F1F7D4
:1021400000008111F5CF8091E80085FF19C0ECD91E
:10215000811111C08091E80085FD06C08091E800E2
:102160008E778093E800F3CFF80181918F018093FF
:10217000F100219779F78091E8008E778093E8004D
:10218000DF91CF911F910F91089543E050E0BC0182
:1021900082E0C1CF46E050E0BC0182E0BCCF40E22B
:1021A00050E0BC0182E0B7CFCF93DF93EC0148E071
:1021B00050E0BC0181E0AFDF88E0FE01A7ECB3E0B6
:1021C00001900D928A95E1F7DF91CF910895809368
:1021D0000C03682F8CE090E00C946831823039F069
:1021E000833039F0813011F484E0F1CF089580E03C
:1021F000FCCF81E0FACFCF93DF93C0EDD2E08883AC
:102200004091D0025091D1026091D2027091D302DC
:1022100083E190E00E947A318881E0DFDF91CF9105
:102220000895A8E0B0E0E7E1F1E10C94D3318E012C
:102230000F5F1F4F88E0F80111928A95E9F79BE341
:10224000E92E92E0F92E68012FE3422E22E0522E71
:1022500066246394712C4BE4842E42E0942EF701A3
:1022600081917F018F3F09F444C0F894E82FE295F3
:10227000EF70F0E021A18F70A30102C0440F551F41
:102280008A95E2F7CA01922F982B91A392A180958B
:10229000892382A3789400C0EFE3F2E021E030E0EC
:1022A000B12CA12C41914F3F09F449C0A42FA29514
:1022B000AF70B0E090968C9190E04F7002C0959511
:1022C00087954A95E2F780FD3AC0C901A82AB92A44
:1022D000220F331F8E169F0629F7F7013197808151
:1022E0008F3F09F0BFDB50EA5A95F1F7F601B18252
:1022F000A082F2E0CF0ED11C4E145F0409F0AFCFE4
:1023000048E050E0B8018DED92E00E941C32892B2C
:10231000D9F088E0F801ADEDB2E001900D928A9518
:10232000E1F781E08093CF0238DA9093CE02809378
:10233000CD0210E0812F2896E0E10C94EF3190E07F
:1023400080E0C4CF10E020C01091CF02112389F3A8
:10235000E090CD02F090CE0220DA8E199F09059709
:1023600040F348E050E06DED72E087EE92E00E94AD
:102370001C32892B39F388E0EDEDF2E0A7EEB2E0F4
:1023800001900D928A95E1F71092CF02D3CF809100
:10239000C60390913303892B90913E01913059F5FA
:1023A0009091B60397FF27C08093570240E250E018
:1023B00063EA72E086E592E00E941C32892BD1F03C
:1023C00080E2E6E5F2E0A3EAB2E001900D928A95A0
:1023D000E1F7E091B203F091B303309759F0048034
:1023E000F581E02D309731F086E08093560286E546
:1023F00092E00995089580934E0248E050E063EC26
:1024000072E08EE492E00E941C32892B99F388E0FE
:10241000EEE4F2E0A3ECB2E001900D928A95E1F7D0
:10242000E091B203F091B303309721F30280F3817E
:10243000E02D3097F9F28EE492E0DBCF809110012D
:10244000877F80931001909133039D7F9093330396
:1024500084FF08C08F7E809310018091C603826044
:102460008093C6038091100185FF08C08F7D809303
:1024700010018091C60380628093C60388CF80914B
:102480003E01813011F58091B60387FF1EC0E8E55B
:10249000F2E08EE1DF011D928A95E9F790E080E09D
:1024A000F8D990E080E0CED91092330370DF86E057
:1024B000EAEAF3E0DF011D928A95E9F71092A3039F
:1024C0001092A4031092A5032BCAE0E5F2E086E087
:1024D000E1CFAAE2B0E0EFE6F2E10C94DD31EDED00
:1024E000F3E08091F100819323E0E53EF207C9F724
:1024F0008091DE03833009F485C008F5813009F44A
:102500005DC0823009F4DDC08091E80083FF17C10F
:102510008091DD039091DE039A3008F010C1E92F1D
:10252000F0E0EB56FD4E0C94CB31721398139F13D1
:1025300098139F13F01312149F139B15A8158A303C
:1025400009F4A5C08B3009F47AC08930E9F680918E
:10255000DD038132C9F68091E1039091E203029795
:1025600098F68091E800877F8093E8008091E800EA
:1025700082FF43C08091F3009091F2008927982751
:102580008927029731F48091F100813011F0863073
:1025900069F48091F10080933D0160913C0170915C
:1025A0003D0180913E0190913F0106D98091E80064
:1025B0008B778093E8000E94C30AA6CF8091DD0349
:1025C000813A09F0A1CF8091E800877F8093E800ED
:1025D0008091E1039091E203892B59F060E090E053
:1025E00080E070E07BD88091E8008B778093E800F2
:1025F0008BCF68E087EC93E0F4CF8091DB0381110F
:10260000B5CF82CF8091DD03813A09F07DCF8091F3
:10261000E1039091E203892B09F076CF8091E800E5
:10262000877F8093E8008091E80080FFFCCF809155
:102630003E018093F1008091E8008E77BACF8091BF
:10264000DD03813209F060CF8091E1039091E203D4
:10265000892B09F059CF8091E800877F8093E800AB
:102660000E94C30A81E09091DF03911101C080E0D4
:1026700080933E0160913C0170913D0180913E014B
:1026800090913F0199D81092C603F9DE3DCF809119
:10269000DD03813209F038CF8091E800877F809395
:1026A000E8000E94C30A8091E00380933C0160919E
:1026B0003C0170913D0180913E0190913F017CD899
:1026C00023CF8091DD03813A09F01ECF8091E8008D
:1026D000877F8093E8008091E80080FFFCCF8091A5
:1026E0003C01A7CF803889F0823849F58091E10319
:1026F0008F70873020F58093E9008091EB0085FB97
:10270000882780F91092E90006C08091CF0390914C
:10271000D003911182609091E800977F9093E80038
:102720008093F1001092F1008091E8008E7727C02D
:10273000282F2D7F21F48823A1F0823029F1809168
:10274000E80083FF0AC08091E800877F8093E8005B
:102750008091EB0080628093EB00AA96E6E00C94F7
:10276000F9318091DF03813051F7933009F080E037
:102770008093D0031092E9008091E800877F8093D6
:10278000E8000E94C30ADBCF8091DF038111F2CF02
:102790008091E1038F702FEF280F263080F6809311
:1027A000E9002091EB0020FFE5CF933031F48091D8
:1027B000EB0080628093EB00DDCF9091EB009061A5
:1027C0009093EB0021E030E001C0220F8A95EAF7F8
:1027D0002093EA001092EA008091EB008860EACF33
:1027E0008111ADCF1091DF031F778091E3008078D6
:1027F000812B8093E3008091E800877F8093E8003D
:102800000E94C30A8091E80080FFFCCF8091E30022
:1028100080688093E30083E0111101C082E080931F
:10282000DB038DCF8058823008F089CF8091DF03A1
:102830009091E0038C3D43E09407A1F583E08A8307
:102840008AE289834FB7F894DE01139620E03EE0D8
:1028500051E2E32FF0E050935700E49120FF03C0D2
:10286000E295EF703F5FEF708E2F90E0EA30C0F09E
:10287000C7968D939D932F5F243159F74FBF809159
:10288000E800877F8093E8006AE270E0CE0101965D
:102890000E946E0B8091E8008B778093E8004FCF09
:1028A000C096E7CF4091E1035091E203292F3327EF
:1028B0002330310509F448C080F52130310509F491
:1028C000EFC02230310509F03ACF0BE310E0E2EF20
:1028D000EE2EE2E1FE2E8091E800877F8093E800F3
:1028E0008091E3039091E4030817190708F4C801E5
:1028F00040E0009709F0E9C04111E7C08091E8008D
:1029000082FDC8CF8091DB03882321F2853011F24C
:102910008091E80083FFF2CFBDCF2132310509F469
:10292000B1C02232310509F00ACF4115510509F431
:10293000C5C04130510509F002CF06EB10E038EF79
:10294000E32E31E1F32EC7CF99278130910509F4A9
:102950005AC040F0029709F460C010E000E0F12C8A
:10296000E12C09C0EFE6F3E1E4910E2F10E07FE6E1
:10297000E72E73E1F72E2091E3033091E403809179
:10298000D5038F5F8093D5033093DA032093D90367
:102990002230310509F04BC09091D6039F5F909390
:1029A000D603833010F19091D803923038F04091E3
:1029B000D703411163C0891709F45EC04091D60363
:1029C000853008F447C02F3F310509F04BC09923EB
:1029D00009F44AC083E0423008F051C0411105C0FB
:1029E0008091D703882309F447C00E94CD0B9093B0
:1029F000D3038093D20381E08093D10301151105A5
:102A000009F49DCE68CFE5E5F3E1E4910E2F10E0E7
:102A100065E5E62E63E1F62EAECFEFE3F3E1E49158
:102A20000E2F10E05FE3E52E53E1F52EA4CF243006
:102A3000310531F49091D7039F5F9093D703B1CFC5
:102A40002F3F310509F0ADCF9091D8039F5F909350
:102A5000D803A7CF843031F49111C0CF423021F494
:102A600084E00DC09111BACF433009F0BECF809100
:102A7000D703813009F0B9CF81E001C082E08093B3
:102A8000D403B3CF4115510591F04130510509F000
:102A900056CE09E010E04DE1E42E43E1F42E1BCFC9
:102AA00002E110E02DE2E22E23E1F22E14CF09E044
:102AB00010E094E0E92E93E1F92E0DCF04E410E04C
:102AC0008EEAE82E82E1F82E06CF2091DB03222346
:102AD00009F4E0CE253009F4DDCE2091E80023FD95
:102AE000D9CE2091E80022FD09CF2091E80020FFF7
:102AF00000CF2091F3003091F200232732272327C3
:102B0000009719F02830310558F041E028303105A0
:102B100009F040E02091E8002E772093E800E9CE0C
:102B2000F70144914093F100FFEFEF1AFF0A01977C
:102B30002F5F3F4FE5CF803809F001CE8091E8004C
:102B4000877F8093E8008091DC038093F100ECCDD7
:102B50008111F5CD1091DF03123008F0F0CD809196
:102B6000E800877F8093E8001093DC030E94C30A8B
:102B70001123F9F084E08093DB0342E061EC81E013
:102B80000E94E20A42E261EC82E00E94E20A809145
:102B9000DB038430A1F482E080933F0160913C012B
:102BA00070913D0180913E0190913F010E94DC0BAC
:102BB000C6CD8091E30087FDDDCF81E0DCCF81E0F1
:102BC000EBCF1092C6035BDC2FEF84E39CE0215037
:102BD00080409040E1F700C0000088E19CE00FB623
:102BE000F894A895809360000FBE90936000FFCF8B
:102BF000882339F0809590913303892380933303A0
:102C0000C6CB0895882331F090913303892B8093AC
:102C10003303BDCB0895882311F03ED8B8CB089577
:102C2000882331F09091C603892B8093C603AFCBE4
:102C30000895882351F19CEF980F913A18F40E945F
:102C4000F70BA5CB90E2980F983048F4877091E08D
:102C500001C0990F8A95EAF7892F1ED8F2CF9BE51C
:102C6000980F933020F490E080E00C94490C98E5A4
:102C7000980F9B3120F490E080E00C94220C93E3B9
:102C8000980F933110F460E0E9C80895CF93DF9373
:102C9000EC01CFDFCE01E0D99E01205E3109283062
:102CA000310510F0CD2B21F4B6DFDF91CF910895DF
:102CB0009FDFFBCFCF93882309F44DC0C82F8CEF43
:102CC0008C0F813A08F061C080913E018130F9F4A7
:102CD0008091B60387FF1BC0EC2FE695E695E6953D
:102CE000F0E0EA5AFD4F828190E04C2F477021E0DE
:102CF00030E002C0220F331F4A95E2F7822393236C
:102D0000892B79F08C2F0E94F70B41DB0AC0E0E59C
:102D1000F2E086E592E02191C217A1F38E179F079A
:102D2000D1F780913E018130C1F48091B60387FFD5
:102D300014C0EC2FE695E695E695F0E0EA5AFD4FD3
:102D4000C77021E030E001C0220FCA95EAF7828106
:102D5000822B82831CDBCF910895A0E5B2E0EFEFD8
:102D600080E09D91C917B1F3EF3F19F4911101C0B3
:102D7000E82F8F5F8630A9F7EF3F61F30E2E000C2E
:102D8000FF0BE25BFD4FC283E5CF80E28C0F883002
:102D900068F4C77021E030E001C0220FCA95EAF75D
:102DA0008091C603822B8093C603D4CFEBE5EC0F52
:102DB000E33040F4F0E0EE5FFD4F808190E00E9450
:102DC000490CC9CFE8E5EC0FEB3150F4F0E0EE0F21
:102DD000FF1FEB5FFD4F808191810E94220CBBCFD2
:102DE00083E38C0F833108F0B6CF61E08C2F36D8A7
:102DF000B2CF1F93CF93DF93182FEB015BDF2097A8
:102E000031F4812F16DFDF91CF911F9108958FE963
:102E10009FE00197F1F700C000002197F0CF70E02C
:102E200060E0893311F460E570E0E3CFB0E0A0E04A
:102E3000ECE1F7E10C94DC31E82FF0E0ED55FC4ECD
:102E4000D490282F26952695269530E0F901ED5649
:102E5000FC4E0491877010E0082E02C0159507956E
:102E60000A94E2F701701127F901ED57FC4EE49046
:102E7000F12C082E02C0F594E7940A94E2F791E051
:102E8000E922FF24F901ED58FC4EC491D0E002C0C4
:102E9000D595C7958A95E2F7C170DD270115110513
:102EA00011F081EE07DFE114F10411F086EE02DF8C
:102EB00070E060E08D2D9DDFE114F10411F086EEED
:102EC000B8DE0115110511F081EEB3DECD2B11F046
:102ED0008CE2A5DFCDB7DEB7E7E00C94F831B0E0C7
:102EE000A0E0E5E7F7E10C94DC31EC018B018AE02E
:102EF000D82EC801FE010995882371F1813009F0AF
:102F000046C0C801FE010995813029F4C801FE01BF
:102F1000099585DFEECF823029F4C801FE010995BD
:102F2000C9DEE7CF833029F4C801FE01099581DEAF
:102F3000E0CF843079F4C801FE010995F12CE12C31
:102F4000482F4053550B9A014A30510550F0E11477
:102F5000F10499F48111CDCFCDB7DEB7E7E00C9441
:102F6000F831DE9CC001DF9C900D11247901E80E40
:102F7000F91EC801FE010995E3CFEFE9FFE03197A3
:102F8000F1F700C00000F1E0EF1AF108E0CF4EDFEA
:102F9000B0CFA2E0B0E0EFECF7E10C94E1319A831E
:102FA0008983BE016F5F7F4F88E89CE098DF22969F
:102FB000E2E00C94FD3190910C03923061F48A3080
:102FC00040F490E009966AE070E00E949631875ADA
:102FD00026CF8650FDCF96EF980F963010F0805D8B
:102FE00025CF895AFDCF8F929F92AF92BF92EF92D9
:102FF000FF920F931F93CF93DF934B015C01D0910E
:103000000C038CE1E82EF12C07E010E021E0D50163
:10301000C4010E2C04C0B695A795979587950A9480
:10302000D2F7C82FCF70222331F0D43041F4CA3008
:1030300030F080E0C0DF8C2FBEDF20E005C0C11182
:10304000FACF04301105BCF30150110984E0E81AED
:10305000F1080F3F1007D9F6DF91CF911F910F9123
:10306000FF90EF90BF90AF909F908F9008958091C8
:10307000D002823039F0833011F0813011F48AE8C7
:10308000CECE089580E9CBDE80E9FACFF0CF089567
:10309000EECF0895CF93DF93D82FC0E08FE4BFDE4B
:1030A000CF5FDC13FBCFDF91CF91089581E0F2CFAA
:1030B000FDCF0895CF93DF93D82FC0E080E5AFDE3A
:1030C000CF5FDC13FBCFDF91CF91089581E0F2CF8A
:1030D000FDCF0895CF93DF93D82FC0E081E59FDE29
:1030E000CF5FDC13FBCFDF91CF91089581E0F2CF6A
:1030F000CF93DF93D82FC0E082E591DECF5FDC1362
:10310000FBCFDF91CF91089581E0F2CF8CE287DE93
:103110008CE285DE8CE283CE8CE481CE88E37FCEA8
:10312000109234030E9472108091DC020E940B0FF7
:1031300081E975DE8BE873CE81E0809334030E94D1
:1031400072108091DC020E941B0F80E968DE8AE821
:1031500066CECF93DF93EC010E942C109E01205E7F
:1031600031092830310510F0209731F459DD8C2FCA
:10317000A1DDDF91CF91089545DDF9CFB0E0A0E06A
:10318000E4ECF8E10C94DC31EC018B01809110014E
:1031900082FF82C0E0902F03F0903003EC16FD0612
:1031A00019F0209709F078C0809110018B7F8093EF
:1031B000100181FD6AC080912D0390912E03A8011A
:1031C000481B590B81E020910E0130910F014217ED
:1031D000530708F480E08170D82E80911001D0FA56
:1031E00081F980931001E701DD27FE0184E0F69567
:1031F000E7958A95E1F7EE0FFF1FE35FFC4F208113
:103200003181A7014F70552781E090E002C0880FFF
:10321000991F4A95E2F7DD20D1F1822B932B918300
:1032200080838091C60381FF08C080911001806176
:103230008093100182E00E944C0E8091C60385FFAE
:1032400008C08091100180628093100180E20E948A
:103250004C0EDD2029F0809133038260809333038C
:10326000C70190528115904308F0E701CE0171DF4C
:1032700080912F03909130039C01305221153043EF
:1032800008F4992703DDDAD816C081E0A4CF809531
:10329000909582239323C3CFCE0190528115904302
:1032A00098F4CE019927F2DC80912F03909130039E
:1032B000C817D90741F310932E0300932D03CDB700
:1032C000DEB7E7E00C94F831CE01EDCF0F931F93FA
:1032D000CF93DF938C01D0E0C0E0C99711F4C0E533
:1032E000D0E0C80136DF209739F4C801CFDCDF9188
:1032F000CF911F910F9108958FE99FE00197F1F70A
:1033000000C000002197EFCFCF92DF92EF92FF92A3
:103310006115710521E18207910508F06AC0611508
:10332000710521E08207910528F020910C032230DD
:1033300009F45FC06B017C010E94700C80930B0349
:1033400090910C03913021F481FF02C089E367DD85
:103350008091C60380930A031092C6031092330330
:1033600080910C03823009F45EC008F047C08823C6
:1033700009F452C0813009F452C08FE39CE90197EF
:10338000F1F700C00000C114D10491E0E906F10496
:1033900008F45EC080910C0381115AC021E0E21A4A
:1033A000F108C701B6012AE096958795779567954C
:1033B0002A95D1F778528F4F9F4F15DE83E0D822A0
:1033C000EE24FF24C701B60174528F4F9F4F0BDECE
:1033D00080910C03823009F453C008F03CC088236C
:1033E00009F442C0813009F442C080910A038093FD
:1033F000C603FF90EF90DF90CF900895843021F1C5
:10340000853009F0BACF8BE191E060DF85E290E092
:103410005DDF88E290E005C082EE4CDCAECF88E153
:1034200093E054DFAACF80910B0380FD02C083E5B7
:10343000F6DC82EE3FDC8FE39CE90197F1F700C0F8
:10344000000087E5ECDC99CF86EEE9DC88E1FACF75
:10345000C701B601BCCF8430D9F0853009F0C5CFA3
:1034600088E290E033DFC1CF82EEE3DBBECF8CE2B7
:10347000D6DC80910B0381FFB8CF89E3D0DCB5CFD8
:1034800082EED7DB80910B0380FDAFCF83E5F6CFD3
:1034900088E2F4CF0F931F93CF93DF93EC01088161
:1034A000011105C0DF91CF911F910F91089507FD84
:1034B00017C0602F70E090E080E021968B019C01A6
:1034C000185D21093109011518402105310538F32E
:1034D0006F3F2FEF72078207920709F315DFDFCFE7
:1034E000802F807E803CA9F410E030E020E0C9010C
:1034F000B801A6E0660F771F881F991FAA95D1F71C
:10350000607C77708827992729812F73622B2296F8
:10351000D5CF802F807F803E31F5898190E0B0E06B
:10352000A0E0BC01CD01E6E0660F771F881F991F60
:10353000EA95D1F7607C7F708827992710E030E00A
:1035400020E0FCE0000F111F221F331FFA95D1F776
:1035500022273327602B712B822B932B2A812F73E9
:10356000622B2396ABCF802F887F803FE9F5053F04
:10357000D8F5898190E0B0E0A0E0BC01CD012CE05D
:10358000660F771F881F991F2A95D1F76627707FCE
:103590008370992710E030E020E042E1000F111F16
:1035A000221F331F4A95D1F7002711272C7133278B
:1035B000602B712B822B932B2B812F73622B0A8113
:1035C00010E030E020E056E0000F111F221F331FF3
:1035D0005A95D1F7007C1F7022273327602B712B5F
:1035E000822B932B24966ACF21966FEF7FEFCB012E
:1035F00065CF8091D002823031F0833011F081307C
:1036000029F48DE40CCC88E091E060CE0895F1CFF0
:10361000089588E204DCEDCF8091D002823031F051
:10362000833011F0813029F48AE4F9CB84E091E011
:103630004DCE0895F1CF08958091D002823061F08F
:10364000833011F0813059F48091D10280FF02C0A3
:1036500081E020CD81E04CCD83E191E037CE08952B
:103660008091D002823061F0833011F0813059F4C2
:103670008091D10280FF02C081E01CCD81E02ACD83
:1036800081E191E023CE0895C7DF88E2C8DB8CE2B8
:10369000C6DB8CE2C4DB8CE2C2DBE2CFBDDFCCDF79
:1036A000A8DF8CE4BCDB8CE4BADB8CE4B8DB8CE414
:1036B000B6DBD6CFB1DF88E2B2DB8CE2B0DBD0CFB5
:1036C000ABDFBADF96DF8CE4AADB8CE4A8DBC8CFE3
:1036D0008091D002823041F0833011F0813019F4B2
:1036E0008CE191E0F3CD08958DE19AE0FBCF8091DC
:1036F000D002823041F0833011F0813019F486E03D
:1037000091E0E4CD089586E098E0FBCF8091D0026F
:10371000823041F0833011F0813019F48DE191E075
:10372000D5CD08958DE198E0FBCF8091D002823015
:1037300041F0833011F0813019F48BE191E0C6CD76
:1037400008958BE198E0FBCF8091D002823041F068
:10375000833011F0813019F488E191E0B7CD0895FC
:103760008DE091E0FBCF8091D002823041F0833038
:1037700011F0813019F48CE091E0A8CD08958EE02D
:1037800091E0FBCF8091D002823041F0833011F084
:10379000813019F486E191E099CD089586E198E0B1
:1037A000FBCF8091D002823041F0833011F0813024
:1037B00019F48DE491E08ACD089581E598E0FBCF7E
:1037C00018DF81EE77DA28DF81EE33CA81EE72DA14
:1037D00010DF81EE2ECA81EE6DDA87E05BDC81EED0
:1037E00028CA81EE67DA87E065DC81EE22CA809123
:1037F000D002823039F0833011F0813021F589E137
:1038000091E064CD83EE56DA2FEF81EE94E0215003
:1038100080409040E1F700C0000089E100DB2FEF1D
:1038200081EE94E0215080409040E1F700C000001C
:1038300083EEFFD92FEF81EE94E02150804090403D
:10384000E1F700C00000089581EE34DAE5DE81EE94
:10385000F0C981EE2FDA87E03DDC81EEEAC981EE26
:1038600029DA81E037DC81EEE4C981EE23DA87E0F2
:103870003FDC81EEDEC981EE1DDA81E039DC81EECC
:10388000D8C981EE17DA89E2CADA89E2C8DA81EEAC
:10389000D0C981EE0FDAADDE81EECBD98AE2BFCAA4
:1038A00081EE08DA81E0F6DB81EEC3C9F9CF089535
:1038B00081EE00DA81E0FEDB81EEBBC9F9CF08952D
:1038C000A7E2B0E0E6E6FCE10C94D131DC011A9607
:1038D0000D911C911B971FA30EA30115110509F44F
:1038E00082C1ED91FC911197EE0FFF1FEE0FFF1FAC
:1038F000EE57F74FC080D180E280F3800130110590
:1039000009F4B2C012962D913C911397220F331FE8
:10391000220F331FF901EE57F74F0230110509F05E
:103920008CC02081318142815381298B3A8B4B8B12
:103930005C8B412C512C32016D8FBBA3AAA380ED6F
:10394000282E80E0382E1FA21EA289889A88AB8874
:10395000BC888C289D28AE28BF28A3019201282965
:1039600039294A295B292D8B3E8B4F8B588F8989AA
:103970009A89AB89BC8984299529A629B729898F79
:103980009A8FAB8FBC8F20E322162FE0320609F40A
:103990002AC140E150E0B101CE0101960E943D31C3
:1039A000AAA1BBA11A960D911C9149815A816B81E4
:1039B0007C810130110509F45FC00230110509F462
:1039C00096C01D8D112309F416C1481559056A05C5
:1039D0007B0551F48D819E81AF81B8858415950555
:1039E000A605B70509F442C1C416D506E606F706D2
:1039F00071F48D819E81AF81B885098D1A8D2B8DD3
:103A00003C8D80179107A207B30709F42FC1452BFE
:103A1000462B472B09F096C021E04D815E816F81D6
:103A200078858D899E89AF89B88D481759076A07AF
:103A30007B0709F020E0822F38C0008111812281AC
:103A40003381098B1A8B2B8B3C8B1496ED91FC9157
:103A50001597EE0FFF1FEE0FFF1FEE57F74F408039
:103A600051806280738068CF412C512C3201198AB9
:103A70001A8A1B8A1C8A60CFBD8DBB23E9F0C4164D
:103A8000D506E606F70681F0452B462B472B69F550
:103A900031E08D819E81AF81B8858C159D05AE0585
:103AA000BF0509F030E0032F802F817009F091C02D
:103AB00010E1210E311C67CFD701C6018423952365
:103AC000A623B7238C159D05AE05BF0569F3452BCD
:103AD000462B472B51F48D819E81AF81B8858C2177
:103AE0009D21AE21BF2131E0D8CF00E0DDCF0D8D8B
:103AF000002351F184169506A606B70609F4B6C050
:103B0000C416D506E606F70671F48D819E81AF8155
:103B1000B88509891A892B893C8980179107A207E2
:103B2000B30709F4A3C0452B462B472B59F481E07A
:103B30004D815E816F817885481559056A057B0541
:103B400009F4B3CF80E0B1CF84169506A606B70678
:103B500009F44FC0C416D506E606F70689F48D8130
:103B60009E81AF81B88509891A892B893C89802378
:103B70009123A223B32380179107A207B307C9F1AA
:103B800080E0411551056105710581F48D819E81AB
:103B9000AF81B88588219921AA21BB2121E0881510
:103BA0009905AA05BB0509F020E0822F80FF80CF90
:103BB0008D819E81AF81B885842B952BA62BB72B49
:103BC00088159905AA05BB0521F002E010E01FA3A6
:103BD0000EA30EA11FA10F5F1F4F1FA30EA3013045
:103BE000110509F465CF8EA19FA1A796E2E10C947F
:103BF000ED3181E0DBCF481559056A057B0569F495
:103C00008D819E81AF81B88584219521A621B72120
:103C100084159505A605B70549F1C416D506E6062F
:103C2000F70689F40D811E812F813885898D9A8D43
:103C3000AB8DBC8D082319232A233B2380179107C2
:103C4000A207B30799F0452B462B472B09F07ACFF3
:103C50004D815E816F8178850D891E892F89388D10
:103C6000402351236223732321E0DBCE81E01DCF6B
:103C70004F925F926F927F92AF92BF92CF92DF92FC
:103C8000EF92FF920F931F93CF93DF93CDB7DEB7E1
:103C9000A8970FB6F894DEBF0FBECDBFFC012285FA
:103CA00033852115310509F443C08C0121303105DC
:103CB00029F4808191818F359E47B9F17801D8012F
:103CC00090E080E0412C512C3201821793070CF4D4
:103CD00044C030EDC32E30E0D32E40E3A42E4FE09D
:103CE000B42EAC14BD0409F04AC018A61FA21C8E45
:103CF0001B8ED12CC12CF801828593850197C816A3
:103D0000D9060CF463C0880F991F080F191FF8011A
:103D100060817181CE0141960E945D10CE014D9669
:103D2000A7DFCE014196A4DF03C088E290E0CEDA9F
:103D3000A8960FB6F894DEBF0FBECDBFDF91CF912E
:103D40001F910F91FF90EF90DF90CF90BF90AF90B9
:103D50007F906F905F904F900895ED91FD91EE0FE1
:103D6000FF1FEE0FFF1FEE57F74F40815181628119
:103D70007381442A552A662A772A0196A6CF40E104
:103D800050E0B601CE0101960E943D3140E1C40EE3
:103D9000D11C89819A81AB81BC814D815E816F810B
:103DA0007885842B952BA62BB72B84159505A60516
:103DB000B70509F096CF8985882321F0CE010996B1
:103DC000E8D8B6CFEF85F8890995B2CFF7016191B0
:103DD00071917F01CE014D960E945D10FFEFCF1AC9
:103DE000DF0A89CFA8E2B0E0E8EFFEE10C94D13120
:103DF000FC012481222309F441C07C0161E00E947E
:103E000000108C01F7018581F801EA56FE47E73181
:103E1000F10508F0EEC1E15FF04E0C94CB31261FA6
:103E20002D1F5B1F6E1F9B1FBE1FA51FD11FE91FEC
:103E3000FE1F1320282040204F2055205B206F209C
:103E400083209F20B320C720DB20EA208823B1F005
:103E500090E080E00E94290F11C0882399F0F701BB
:103E600082819381909383028093820282E00E94F8
:103E70001B0F0E94FD0E81E080938102A896E2E173
:103E80000C94ED3182E00E940B0F0E94FD0E809198
:103E90008102882369F0F701828193812091820257
:103EA00030918302821B930B843B910508F438D92F
:103EB00010928102E3CF882369F0F7018281938118
:103EC000909383028093820284E00E941B0F0E94E1
:103ED000FD0ED4CF84E00E940B0FF9CF882371F040
:103EE00081E080938002F701828193819093830225
:103EF0008093820280EE0E945A16C0CF80EE0E940C
:103F0000191680918002882399F0F70182819381AC
:103F10002091820230918302821B930B843B910596
:103F200038F4809134038111FBD889E290E0CED936
:103F300010928002A3CF882321F085E00E941B0FFE
:103F40009DCF85E00E940B0F99CFF701228133812D
:103F5000882329F030938302209382028FCF8091AF
:103F6000820290918302281B390B8AE490E0223967
:103F7000310510F48DE490E0A9D980CFF7012281BA
:103F800033818111E7CF8091820290918302281BB7
:103F9000390B8AE491E02239310570F78DE491E024
:103FA000EBCF909102019350882349F0923020F496
:103FB0008DE198E0CED862CF8DE191E0FBCF9230D9
:103FC00028F48DE198E00E94461658CF8DE191E0EB
:103FD000FACF909102019350882341F0923018F467
:103FE0008BE198E0E7CF8BE191E0E4CF923018F4D9
:103FF0008BE198E0E8CF8BE191E0E5CF9091020171
:104000009350882341F0923018F486E098E0D2CFA4
:1040100086E091E0CFCF923018F486E098E0D3CFDD
:1040200086E091E0D0CF909102019350882341F037
:10403000923018F489E198E0BDCF89E191E0BACFE0
:10404000923018F489E198E0BECF89E191E0BBCFCE
:10405000909102019350882341F0923018F488E245
:1040600098E0A8CF88E291E0A5CF923030F488E2C2
:1040700098E00E94461654D801CF88E291E0F9CF2B
:10408000882309F4FBCE84EB9FE09A838983BE01E9
:104090006F5F7F4F8FE79CE00E946F17EFCE882302
:1040A00009F4ECCE80EB9FE0F0CF882309F4E6CE54
:1040B0008CEA9FE0EACFF7012281338181114ACF58
:1040C0008091820290918302281B390B8FE192E04C
:1040D0002239310508F050CF84E292E04DCFF7014C
:1040E00022813381811136CF8091820290918302A7
:1040F000281B390B84E390E02239310508F03CCFCE
:1041000083E390E039CFF70122813381811122CFFF
:104110008091820290918302281B390B89E892E0FA
:104120002239310508F028CF809102018350823076
:1041300018F489E894E020CF87E890E01DCFF701DC
:1041400022813381811106CF809182029091830276
:10415000281B390B8EE292E02239310508F00CCF92
:104160008FE292E009CFF701228133818111F2CEF3
:104170008091820290918302281B390B87E892E09C
:104180002239310508F0F8CE8DE290E0F5CEF70146
:10419000228133818111DECE80918202909183024F
:1041A000281B390B83E392E02239310508F0E4CE75
:1041B0008DE292E0E1CE909102019350882329F0A4
:1041C000923078F489ED90E0F5CE923078F489ED74
:1041D00090E04FCF909102019350882329F09230C4
:1041E00088F78AED90E0E6CE923088F78AED90E08D
:1041F00040CF90917F02882309F4E7C61092810294
:10420000109280029F5F90937F0280917F028111C4
:1042100008C010927B0210927C0210927D021092D4
:104220007E02C0907902D0907A02C114D10409F0C4
:104230006CC0909134038091DC024091E503509171
:10424000E603992309F46BC04115510529F488232D
:1042500079F00E941B0F0CC021E030E0082E02C054
:10426000220F331F0A94E2F724233523232B89F3EB
:10427000F7012581222389F00236FEE71F0709F4A2
:1042800088C008F062C000364EE7140709F47BC00E
:1042900001368EE7180709F47AC080913403811142
:1042A0003BC18091760290917702222309F4E1C00C
:1042B000209178022F5F209378024091D80250918C
:1042C000D902009709F085C0213009F082C0041797
:1042D0001507B1F08091DA029091DB0208171907F7
:1042E00079F08091D4029091D5020817190741F016
:1042F0008091D6029091D7020817190709F007C1DB
:104300001093770200937602B9CD1C141D040CF0B3
:10431000AFCF8091DC024091E5035091E603411557
:10432000510529F48111A4CF0E940B0FA1CF21E0E8
:1043300030E0082E02C0220F331F0A94E2F7242334
:104340003523232B09F494CFEFCF03369EE71907CB
:1043500011F10436EEE71E0709F09FCF9091D102CC
:10436000892F8E7F90FF81608093D1024091D0028F
:104370005091D1026091D2027091D30283E190E01A
:104380000E947A317BCD81E00E94FB1077CD82E0E4
:10439000FBCF83E0F9CF8091D002823089F0833067
:1043A00091F0813021F480E491E00E94C91780915E
:1043B000D10280FF0BC08EE491E00E94C9175ECD50
:1043C00084E491E0F2CF88E491E0EFCF84E591E0DE
:1043D000F4CF2091DA023091DB020417150761F463
:1043E0002817390779F40E949C18109277021092CE
:1043F00076021092780242CD0217130719F448177B
:10440000590789F32091D4023091D5024091D60208
:104410005091D7020217130731F44817590749F48E
:104420000E949018E2CF0417150719F428173907CE
:10443000B9F30E940F171092770210927602109231
:104440007802F7018581882309F4ADC20433FCE7C3
:104450001F0709F404C308F096C202333CE71307B0
:1044600009F49EC203334CE7140709F09CC281E0B3
:1044700098C210927802009709F449C00E940F1761
:104480001092770210927602C801805E9109089717
:1044900020F4802F0E941916F1CCC801905281158A
:1044A000904208F0EBCC10FF03C080EE0E9419167A
:1044B00011FF03C081EE0E94191612FF03C082EEA5
:1044C0000E94191613FF03C083EE0E941916C8013B
:1044D00088279171892B19F084EE0E941916C80162
:1044E00088279271892B19F085EE0E941916C80150
:1044F00088279471892B19F086EE0E9419160027DF
:1045000018710115110509F4B9CC87EEC3CF1092CB
:1045100077021092760295CFC801805E91098830AB
:10452000910508F40EC180529F41811530E2930736
:1045300008F407C180549E458032910508F081CF70
:10454000880F991F880F991FFC01EE57FE4F80813D
:104550009181A281B38140917B0250917C02609154
:104560007D0270917E02222309F4E1C1842B952BF8
:10457000A62BB72B80937B0290937C02A0937D02A5
:10458000B0937E02C8018E559E47029708F0FBC08B
:104590001C861B86B801CE0101960E945D102091F9
:1045A00023043091240425303105A4F4C901019677
:1045B00090932404809323048CE0829FD001839FF6
:1045C000B00D1124A951BC4FFE01319601900D92FE
:1045D0008A95E1F72091F1033091F203A7EEB3E061
:1045E00090E080E0A12CB12C6501821793070CF4B8
:1045F00058C17AE5272E71E0372E188E1F8AF101F7
:1046000060817181CE010D960E945D10F101628181
:1046100073816115710521F0CE010D960E945D1028
:104620002F89388DDE011D96FD01912C812C82167B
:1046300093060CF448C188248A94982C90E080E07A
:10464000412C512C3201821793070CF446C1209162
:1046500023043091240421503109ECE0E29FC00191
:10466000E39F900D112489519C4FFC01DE011196AE
:104670002CE001900D922A95E1F7FC010284F3856C
:10468000E02DF8A7EFA39E012F5F3F4F3EA32DA380
:10469000F12CE12C2FA138A5E216F3060CF42FC162
:1046A00097FE3BC180917B0290917C02A0917D029C
:1046B000B0917E0284219521A621B7214816590682
:1046C0006A067B0609F029C1D601C501842195211E
:1046D000A621B721481659066A067B0609F41DC1B2
:1046E00061E0CE010D96ECD8181619060CF015C134
:1046F0002091230430912404215031098CE0829FC1
:10470000D001839FB00D1124A951BC4FFE013D96ED
:1047100001900D928A95E1F78091230490912404F1
:1047200002973CF460E087EE93E0CAD8019709F065
:10473000A5CB87EE93E09CDA90E080E00E944C0AE3
:104740009DCB222361F04FEFC41AD40AD0927A0293
:10475000C09279028091DC020E940B0F72CE81E040
:10476000C81AD1081C141D042CF4D0927A02C092ED
:10477000790267CE10927A02109279028091DC025F
:104780000E941B0F5ECE8091230490912404181682
:1047900019064CF501971CA21BA22CE0289F600172
:1047A000299FD00C1124F12CE12CF601EF50FC4F85
:1047B0005F01F50180819181E816F9060CF454C07F
:1047C000188E1F8A9E01275E3F4F7901D12CC12C84
:1047D0008BA19CA1C816D9060CF457C0B801CE0114
:1047E0000D960E945D108091230490912404181668
:1047F00019060CF0CDCEEBA1FCA13197EE0FFF1FF7
:1048000021E030E02C0F3D1FE20FF31F808D918DD2
:104810000817190709F4BCCE60E0CE010D9650D8F8
:10482000181619060CF0B4CE80912304909124043C
:1048300001970E944C0A20912304309124042530D2
:1048400031050CF0C7CEC9010196909324048093E2
:1048500023048CE0829FD001839FB00D1124A951C5
:10486000BC4FFE013D96B2CEF701EE0FFF1FEC0DDF
:10487000FD1DE951FC4F60817181CE0149960E9476
:104880005D10FFEFEF1AFF0A94CFF701619171916C
:104890007F01CE010D960E945D10FFEFCF1ADF0A57
:1048A00097CFED91FD91EE0FFF1FEE0FFF1FEE571B
:1048B000F74F4081518162817381A42AB52AC62AAB
:1048C000D72A019692CE819191910817190709F480
:1048D000B5CE4FEF841A940AAACEED91FD91EE0F5A
:1048E000FF1FEE0FFF1FEE57F74F4081518162818E
:1048F0007381442A552A662A772A0196A4CEEDA10F
:10490000FEA161917191FEA3EDA3CE010D960E94CF
:104910005D10FFEFEF1AFF0ABDCE34E0230E311C0D
:1049200082E891E08215930509F067CEF5CE809577
:104930009095A095B09584239523A623B7238093C3
:104940007B0290937C02A0937D02B0937E02892B20
:104950008A2B8B2B81F080912304909124041816CC
:1049600019060CF4DFCE8ACA87EE93E081D990E075
:1049700080E00E944C0A8091230490912404181630
:10498000190694F37BCA06338CE7180709F46BC049
:1049900008F467C00733ECE71E0729F485E001C07F
:1049A00080E00E94E710F7018581882341F017FF1E
:1049B00006C0B8017F7790E080E00E9484190E94D1
:1049C000CD0B9EA38DA3F7018581882309F4CAC06E
:1049D0008091100182FF08C040E053E06DA17EA1EC
:1049E00090E080E00E94BE180231FCE71F0709F446
:1049F00064C0D8F500313CE7130709F454C0809136
:104A00000E0190910F01059601314CE7140709F44E
:104A10004FC0C80190528115904308F0B2C0109267
:104A2000300310922F03F70195819801205E3245E3
:104A30002032310508F017C191115EC10F7181E07C
:104A400090E09C0102C0220F331F0A95E2F7890112
:104A5000622F83E090E00E946831C801FBC982E0C8
:104A6000A0CF83E09ECF84E09CCF04318CE7180771
:104A7000B1F078F090911001892F8E7F90FF8160C6
:104A80000531ECE71E0729F6809310010E941E12E3
:104A9000C0CF80911001816080931001BACF8091C6
:104AA00010018E7FF1CF80910E0190910F0105973B
:104AB00090930F0180930E01ACCF40900E01509067
:104AC0000F0180910001909101014816590621F4CF
:104AD00080918A028032D1F150920101409200010E
:104AE00080E280938A02712C612C1092890229E85D
:104AF000C22E22E0D22E34E8232E32E0332E4AE0BA
:104B0000842E912CA12CB12CC301B201A5019401DA
:104B10000E94A931605D603329F429E832E02C1548
:104B20003D0531F0411451046104710409F460E25F
:104B3000F60162936F01C301B201A50194010E94C5
:104B4000A93129013A012C143D04F1F624E832E0A0
:104B5000C9012F5F3F4FFC0140814032C9F30E94E1
:104B6000C91757CF809110018F7E013E110539F092
:104B7000053E110509F03FC0809110018F7D8093A3
:104B800010018091100180FF4ECFF70185810B321B
:104B9000110539F0B8F59801245031092A31310551
:104BA000D0F5882309F458C09091C603892F8D7FD2
:104BB000A9F11092300310922F03F80184E0F695CA
:104BC000E7958A95E1F7EE0FFF1FE35FFC4F980131
:104BD0002F70332781E090E002C0880F991F2A953B
:104BE000E2F78095909520813181822393239183F0
:104BF0008083C801DFC9C80190528115904308F035
:104C0000C0CF11CF0D32110530F00933110548F234
:104C10000436110531F2811102CF05CF88E0F7018A
:104C2000A0E0B3E001900D928A95E1F710920303A2
:104C3000109202038091100191FB81F910933003CF
:104C400000932F032DA13EA130932E0320932D031B
:104C500084608093100112C9A7016DA17EA1C801D3
:104C60000E94BE180BC9992309F446C001303CE7E5
:104C7000130709F43FC003304CE71407A9F10115ED
:104C80001C4709F039C01092C6030E943F129FEFE3
:104C9000E4E3FCE09150E040F040E1F700C00000A8
:104CA00081E08093E00080E28093D8001092C900F8
:104CB0008FE19EE40197F1F700C0000087E090EBE0
:104CC000DC018093250490932604A0932704B093DD
:104CD000280488E19CE00FB6F894A89580936000C2
:104CE0000FBE90936000FFCF6FEF7FEF90E080E00A
:104CF0000E9482310E94E115F7012681378121153A
:104D00003105F9F0C9010E94670D182F292FF7010D
:104D10006581092F02950F700C3008F06CC0E02FF0
:104D2000F0E0EB56F94D0C94CB31B726B726FB26B5
:104D3000FB26F4261127FB26FB2614279D27AE27EA
:104D4000AE2700811181992369F0C8010E94540E99
:104D5000D82E682FC8010E94B90EB8018D2D0E946F
:104D6000490DD1CFC8010E94860ED82EF6CF092F4B
:104D70000F70207F11F00295007F6623E9F0002379
:104D800069F080E2810F883010F011110FC080911E
:104D9000C603082B0093C6030E94C711812F0E94EF
:104DA0005A1660E0C7010E94001068C88091330362
:104DB000082B00933303F0CF812F0E941916002394
:104DC00081F380E2810F883010F0111106C0802F2E
:104DD0000E944C0E0E94C711E4CF009580913303CE
:104DE000082300933303F6CF892F86958695837029
:104DF00031F0813069F00850023098F649C0812FB7
:104E00009370611102C080E090E00E94490CC9CF0C
:104E1000812F9370611102C080E090E00E94220C0B
:104E2000C0CF0E942E0FBDCF892F837009F041C0E3
:104E300061112EC0312F329536953770330F330FF5
:104E4000412F4F7050E0032E02C0440F551F0A94AB
:104E5000E2F790E080E014FF09C08FE090E002C02C
:104E6000880F991F3A95E2F780959095269526959B
:104E700023702230A9F088F46091E5027091E60277
:104E8000213049F0842B952B862397230E94290FEC
:104E90000E94700C86CF462B572B842B952BF6CF78
:104EA000842B952B2091E5023091E60282279327EF
:104EB000EDCF8695662311F0892F8170882341F309
:104EC000312F329536953770330F330F412F4F7096
:104ED00050E0032E02C0440F551F0A94E2F790E001
:104EE00080E014FF09C08FE090E002C0880F991F96
:104EF0003A95E2F780959095269526952370223075
:104F000099F078F46091E5037091E603213039F06F
:104F1000842B952B862397230E94EF0EB9CF462B27
:104F2000572B842B952BF8CF842B952B2091E503C1
:104F30003091E60382279327EFCF092F0F70662366
:104F400039F0802F0E941B0F812F0E941016A0CFD6
:104F50000E940B16802F0E940B0F9ACF823F59F0B0
:104F6000833F81F0813FE9F4892F8F71662339F007
:104F70000E941B0F40CF892F8F716623C9F30E94B7
:104F80000B0F39CF90E080E0662341F02F7181E074
:104F900090E002C0880F991F2A95E2F70E94EF0E59
:104FA0002ACF662319F00E945A1625CF893349F477
:104FB000FFEF27EE33E0F15020403040E1F700C032
:104FC0000000812F0E94191616CF19160CF01DC96A
:104FD000915019C90F931F93CF93DF93809136039C
:104FE000882359F0809135031CE09091360389178E
:104FF00048F01092360310923503DF91CF911F9144
:105000000F91089501E0080F00933503C82FD0E0F9
:10501000819FC0011124895C9C4FFC0124812223C3
:10502000F1F026813781232BF9F4208531852F3F3C
:105030003207D1F0245031092230310530F480910B
:10504000340381110EC00E949C181C9FF0011D9F0B
:10505000F00D1124E95CFC4F148210923303802F71
:10506000C4CF0E949018EFCF0E94F21EEECF109294
:10507000A2031092A10310923B018091A0038093A0
:105080009F030E941E0DA6CFA8E0B0E0EAE4F8E27C
:105090000C94DF318B01FB0182819381892B91F08C
:1050A00019821A820E94CD0B9C838B8384E08D83AE
:1050B0001E82F8018281938198878F83CE010196A9
:1050C0000E94F21EF80115822896E4E00C94FB3150
:1050D000B0E0A0E0EEE6F8E20C94D131C0919F037D
:1050E000E7E08E2EEE24E394F12CACE09A2EB4E0AF
:1050F0002B2E8091A0038C1308C06CDF0E941E0D24
:10510000CDB7DEB7E2E10C94ED31D0E0FE01EE0F59
:10511000FF1FE956FC4F00811181B0E0A0E006308E
:10512000110538F4809ED001819EB00D1124AF5E30
:10513000BE4F14968C911497811158C0309036034D
:1051400027E333E090E080E0412C831508F04BC06A
:10515000F901C284D3846D907C9011974FEF5FEF7B
:10516000512CA52CB12CF501EE0FFF1FE60DF71DFC
:1051700065917491C616D70609F4A501672B11F045
:105180005394EFCF4F3F5407B1F1B70102C0660F00
:10519000771F4A95E2F7462AA701052C02C0440F63
:1051A000551F0A94E2F7415051094416150609F5B6
:1051B00012962D913C911397989EF001999EF00DB7
:1051C0001124E95CFC4F37832683248210821182EC
:1051D0001187008771E015967C931597571203C0CD
:1051E000BD01C80151DFC8010E94EB0C2196C370BC
:1051F00080CFF90114820196245F3F4FA6CFA8E12A
:10520000B0E0E5E0F9E20C94D131498B5A8B6B8B1D
:105210007C8B8D8B9E8B911110923303188A1F8685
:1052200086E0FE017196DE01199601900D928A9535
:10523000E1F78D85811108C0CE0109960E94F21E0A
:105240006896E2E10C94ED3161E0CE0109960E948E
:10525000001061E0CE0109960E94001061E0CE01CD
:1052600009960E9400105C018E8520E5A2162CE7AD
:10527000B20651F48823E9F081E080933B0181E09C
:1052800090E080FDD9CFDCCF31E5A3163CE7B30633
:1052900021F4882371F0EBDEF2CF42E5A4164CE74F
:1052A000B40639F4882329F080913B01882321F347
:1052B000F2CF01E111E0612CD12CC12C8824839420
:1052C000912CF801808191816FEF3FEF20E0E22E79
:1052D000F12CF701EE0FFF1FE80FF91F45915491D4
:1052E000A416B50611F0E62EF32E452B21F02F5F04
:1052F0006E2D3F2DECCF80E0FFEFEF16FF0609F497
:105300004AC0F801448170903B01872D411180E033
:10531000F82FF1707F2EF801358086819E859923C4
:1053200009F4FDC0772009F4FAC0311014C0A401BB
:105330000E2C01C0440F0A94EAF7842B86838091D7
:10534000310390913203C29730F442E350E050931E
:10535000320340933103C40102C0880F991F2A957C
:10536000E2F70197F80126812817190609F0C7C04E
:10537000E090A103F090A203E114F10409F44DC000
:105380000E94CD0B8E199F09C39708F446C021E0F7
:10539000F801248381E0682AFFEFCF1ADF0A095F52
:1053A0001F4F26E0C216D10409F08BCF8E858823CB
:1053B00009F4F4C0662009F4F1C00E94CD0B90936B
:1053C000A2038093A10380913603883010F591E009
:1053D000980F9093360398E0FE013996DE011196FE
:1053E00001900D929A95E1F73CE0839FC001112452
:1053F000895C9C4F28E0FE013196DC0101900D9202
:105400002A95E1F72FEF3FEFFC0131872087B38624
:10541000A28681E06826862D34CF80919F0360911B
:10542000A003982FF0E0E0E0861314C090939F0350
:105430000E171F0709F463C090E0FC01EE0FFF1F79
:10544000E956FC4FD182C0820196837099278093E0
:10545000A00355C0282F30E0F901EE0FFF1FE956D9
:10546000FC4F40815181B0E0A0E04630510540F44E
:1054700077E0749FD001759FB00D1124AF5EBE4FD1
:105480004D915C911197588F4F8B212C70E0312CEE
:10549000E32DF0E0EE0FFF1F4F89588DE40FF51F4D
:1054A000E590F490E114F104B9F0F80140805180E6
:1054B00070E005C0E416F50609F4272C7F5FE72F9E
:1054C000F0E0EE0FFF1FE40DF51D459154914115DD
:1054D000510581F73394DCCF222029F0731530F089
:1054E000FD01109721F4F0E0E0E014C0F80141E084
:1054F00044830E171F0729F490939F03722C872D66
:105500004ACF891307C0AE17BF0721F4C90101961E
:10551000982F93702F5F3F4F822F837085CF90E03D
:1055200031101FC0B40102C0660F771F2A95E2F741
:105530009B01215031092817390729F4442361F1CF
:10554000C6010E94EB0CC4010E2C01C0880F0A9406
:10555000EAF7982F9095F801868189238683732C2A
:10556000CECF9C010E2C02C0359527950A94E2F708
:10557000A90141705527BC01615071098623972309
:10558000892B31F4452B21F0B801C6017DDDDBCF3D
:10559000722F7170372ED7CF372CD5CF90919F03B4
:1055A0008091A003981711F093DD33CF13DD109293
:1055B000A2031092A1030E941E0D2BCFA6E0B0E023
:1055C000E3EEFAE2FCC60E94CD0B8C018091CB0287
:1055D0009091CC028017910779F019821A820E946B
:1055E000CD0B682F49815A81792F80E090E007DE4A
:1055F0001093CC020093CB022696E4E0FCC6A8E20E
:10560000B0E0E4E0FBE2DBC68C0147D68997E0F42A
:10561000B801CE0101963AD68091D0028230B9F01D
:10562000833041F0813081F4CE0101960E944A1A04
:1056300088E208C08BE80E940F17CE0101960E94F5
:105640004A1A8AE80E940F17A896E4E0D4C681E9B6
:105650000E940F172FEF80E792E02150804090408A
:10566000E1F700C0000080EE0E945A162FEF80E79D
:1056700092E0215080409040E1F700C000008FE6AA
:105680000E940F172FEF80E792E02150804090405A
:10569000E1F700C0000080EE0E9419162FEF80E7AE
:1056A00092E0215080409040E1F700C00000CE0120
:1056B00001960E944A1A2FEF80E792E02150804025
:1056C0009040E1F700C0000081EE0E945A162FEFD3
:1056D00080E792E0215080409040E1F700C0000058
:1056E00080E90E940F172FEF80E792E02150804061
:1056F0009040E1F700C0000081EE0E9419162FEFE4
:1057000080E792E0215080409040E1F700C0000027
:1057100080E998CF88EA9FE072DF88E20E940F1745
:105720008CE20C940F1784EA9FE069DF88E20E9404
:105730000F1780EA9FE063CF8CE99FE060DF88E28B
:105740000C940F1788E99FE05ACF84E99FE057CF68
:1057500080E99FE054CF8CE89FE051CF88E89FE03C
:105760004ECF86E69FE04BDF88E20C940F1782E66F
:105770009FE045CF8EE59FE042CF8AE59FE03FCF97
:1057800086E59FE03CCF82E59FE039CF8BE49FE048
:1057900036CF87E49FE033CF83E49FE030CF8FE3C1
:1057A0009FE02DCF8BE39FE02ACF84E39FE027CFBC
:1057B00080E39FE024CF1F920F920FB60F92112427
:1057C0002F933F934F935F936F937F938F939F9309
:1057D000AF93BF93CF93EF93FF93C091E900CF7046
:1057E0008091EC001092E9008091F000877F809317
:1057F000F00078940E9469121092E9008091F00004
:1058000088608093F000C093E900FF91EF91CF9101
:10581000BF91AF919F918F917F916F915F914F91C8
:105820003F912F910F900FBE0F901F9018951F92D0
:105830000F920FB60F9211242F933F934F935F93C4
:105840006F937F938F939F93AF93BF93CF93EF9378
:10585000FF938091E10082FF09C08091E20082FF06
:1058600005C08091E1008B7F8093E1008091DA0098
:1058700080FF24C08091D80080FF20C08091DA0092
:105880008E7F8093DA008091D90080FFD2C080E1C2
:1058900089BD82E189BD09B400FEFDCF81E080931E
:1058A000DB038091C503811109C00E94750A0E9423
:1058B000140B8091E20084608093E2008091E1000B
:1058C00080FF24C08091E20080FF20C08091E20030
:1058D0008E7F8093E2008091E20080618093E200FD
:1058E0008091D80080628093D80019BC85E08093B5
:1058F000DB0383E080933F0160913C0170913D01A7
:1059000080913E0190913F010E94DC0B8091E1006B
:1059100084FF39C08091E20084FF35C080E189BDF9
:1059200082E189BD09B400FEFDCF8091D8008F7D52
:105930008093D8008091E1008F7E8093E100809178
:10594000E2008F7E8093E2008091E200816080938C
:10595000E2008091DC03882309F471C084E0809325
:10596000DB038091DB03843009F471C081E0809314
:105970003F0160913C0170913D0180913E01909109
:105980003F010E94DC0B8091E10083FF40C08091C9
:10599000E20083FF3CC08091E100877F8093E100BB
:1059A00082E08093DB031092DC038091E1008E7F24
:1059B0008093E1008091E2008E7F8093E2008091ED
:1059C000E20080618093E20042E060E080E00E94BB
:1059D000E20A8091F00088608093F000C1E0C093FB
:1059E0003F0160913C0170913D0180913E01909199
:1059F0003F010E94DC0BC0933E0160913C0170911D
:105A00003D0180913E0190913F010E94DC0BFF918E
:105A1000EF91CF91BF91AF919F918F917F916F91B6
:105A20005F914F913F912F910F900FBE0F901F905C
:105A3000189519BC1092DB031092C5033FCF8091DB
:105A4000E30087FD02C081E08ACF83E088CF82E057
:105A50008ECF78941F920F920FB60F9211248F93CE
:105A60009F93AF93BF938091C1039091C203A09184
:105A7000C303B091C4030196A11DB11D8093C1035E
:105A80009093C203A093C303B093C403BF91AF919B
:105A90009F918F910F900FBE0F901F9018951F929E
:105AA0000F920FB60F9211248F939F93AF93BF93D2
:105AB0008091C003811113C08091C1039091C203F2
:105AC000A091C303B091C4034196A11DB11D809361
:105AD000C1039093C203A093C303B093C403BF91C7
